{
  "contractName": "Market",
  "abi": [
    {
      "constant": true,
      "inputs": [
        {
          "internalType": "uint256",
          "name": "",
          "type": "uint256"
        }
      ],
      "name": "buyers",
      "outputs": [
        {
          "internalType": "address",
          "name": "",
          "type": "address"
        }
      ],
      "payable": false,
      "stateMutability": "view",
      "type": "function"
    },
    {
      "constant": false,
      "inputs": [
        {
          "internalType": "uint256",
          "name": "petId",
          "type": "uint256"
        }
      ],
      "name": "buy",
      "outputs": [
        {
          "internalType": "uint256",
          "name": "",
          "type": "uint256"
        }
      ],
      "payable": true,
      "stateMutability": "payable",
      "type": "function"
    },
    {
      "constant": true,
      "inputs": [],
      "name": "getBuyers",
      "outputs": [
        {
          "internalType": "address[16]",
          "name": "",
          "type": "address[16]"
        }
      ],
      "payable": false,
      "stateMutability": "view",
      "type": "function"
    }
  ],
  "bytecode": "0x608060405234801561001057600080fd5b506102c6806100206000396000f3fe6080604052600436106100345760003560e01c8063d96a094a14610039578063f2aa82181461007b578063f64bfaba146100f6575b600080fd5b6100656004803603602081101561004f57600080fd5b8101908080359060200190929190505050610149565b6040518082815260200191505060405180910390f35b34801561008757600080fd5b506100b46004803603602081101561009e57600080fd5b81019080803590602001909291905050506101ba565b604051808273ffffffffffffffffffffffffffffffffffffffff1673ffffffffffffffffffffffffffffffffffffffff16815260200191505060405180910390f35b34801561010257600080fd5b5061010b6101ed565b6040518082601060200280838360005b8381101561013657808201518184015260208101905061011b565b5050505090500191505060405180910390f35b600080821015801561015c5750600f8211155b61016557600080fd5b336000836010811061017357fe5b0160006101000a81548173ffffffffffffffffffffffffffffffffffffffff021916908373ffffffffffffffffffffffffffffffffffffffff160217905550819050919050565b600081601081106101c757fe5b016000915054906101000a900473ffffffffffffffffffffffffffffffffffffffff1681565b6101f561026e565b6000601080602002604051908101604052809291908260108015610264576020028201915b8160009054906101000a900473ffffffffffffffffffffffffffffffffffffffff1673ffffffffffffffffffffffffffffffffffffffff168152602001906001019080831161021a575b5050505050905090565b60405180610200016040528060109060208202803883398082019150509050509056fea265627a7a72315820bef3590a8b50a4f512449f9bd26fdfac263eaa7618f41a2e7f5e81e24b3117dc64736f6c63430005110032",
  "source": "pragma solidity ^0.5.0;\r\n\r\ncontract Market {\r\naddress[16] public buyers; //Ethereum addresses-an unique type\r\n// Buying a pet\r\nfunction buy(uint petId) external payable returns (uint) {\r\n  require(petId >= 0 && petId <= 15);\r\n\r\n  buyers[petId] = msg.sender;\r\n\r\n  return petId;\r\n}\r\n// Retrieving the buyers - update ui(pet sell statuses)\r\nfunction getBuyers() public view returns (address[16] memory) {\r\n  return buyers;\r\n}\r\n\r\n}",
  "sourcePath": "/Users/chloez/Documents/UT/aps1050/pet-shop-box-master/contracts/Market.sol",
  "compiler": {
    "name": "solc",
    "version": "0.5.17+commit.d19bba13.Emscripten.clang"
  },
  "schemaVersion": "3.4.3",
  "updatedAt": "2021-08-29T19:36:59.061Z",
  "networkType": "ethereum",
  "devdoc": {
    "methods": {}
  },
  "userdoc": {
    "methods": {}
  }
}